{
  "contractName": "Title",
  "abi": [
    {
      "constant": true,
      "inputs": [],
      "name": "propertyValue",
      "outputs": [
        {
          "name": "",
          "type": "uint256"
        }
      ],
      "payable": false,
      "stateMutability": "view",
      "type": "function"
    },
    {
      "constant": true,
      "inputs": [],
      "name": "smartCrowdPropertyId",
      "outputs": [
        {
          "name": "",
          "type": "bytes32"
        }
      ],
      "payable": false,
      "stateMutability": "view",
      "type": "function"
    },
    {
      "constant": true,
      "inputs": [],
      "name": "tokenValue",
      "outputs": [
        {
          "name": "",
          "type": "uint256"
        }
      ],
      "payable": false,
      "stateMutability": "view",
      "type": "function"
    },
    {
      "constant": true,
      "inputs": [],
      "name": "info",
      "outputs": [
        {
          "name": "name",
          "type": "bytes32"
        },
        {
          "name": "loaction",
          "type": "bytes32"
        },
        {
          "name": "registrationNo",
          "type": "uint256"
        }
      ],
      "payable": false,
      "stateMutability": "view",
      "type": "function"
    },
    {
      "constant": true,
      "inputs": [],
      "name": "expense",
      "outputs": [
        {
          "name": "rentalIcome",
          "type": "uint256"
        },
        {
          "name": "maintenanceCost",
          "type": "uint256"
        },
        {
          "name": "bills",
          "type": "uint256"
        }
      ],
      "payable": false,
      "stateMutability": "view",
      "type": "function"
    },
    {
      "constant": true,
      "inputs": [],
      "name": "manager",
      "outputs": [
        {
          "name": "",
          "type": "address"
        }
      ],
      "payable": false,
      "stateMutability": "view",
      "type": "function"
    },
    {
      "constant": true,
      "inputs": [],
      "name": "tokenCount",
      "outputs": [
        {
          "name": "",
          "type": "uint256"
        }
      ],
      "payable": false,
      "stateMutability": "view",
      "type": "function"
    },
    {
      "constant": true,
      "inputs": [],
      "name": "broker",
      "outputs": [
        {
          "name": "",
          "type": "address"
        }
      ],
      "payable": false,
      "stateMutability": "view",
      "type": "function"
    },
    {
      "constant": true,
      "inputs": [],
      "name": "admin",
      "outputs": [
        {
          "name": "",
          "type": "address"
        }
      ],
      "payable": false,
      "stateMutability": "view",
      "type": "function"
    },
    {
      "inputs": [
        {
          "name": "_name",
          "type": "bytes32"
        },
        {
          "name": "_loaction",
          "type": "bytes32"
        },
        {
          "name": "_registrationNo",
          "type": "uint256"
        },
        {
          "name": "_id",
          "type": "bytes32"
        },
        {
          "name": "_tokenCount",
          "type": "uint256"
        }
      ],
      "payable": false,
      "stateMutability": "nonpayable",
      "type": "constructor"
    },
    {
      "payable": true,
      "stateMutability": "payable",
      "type": "fallback"
    },
    {
      "anonymous": false,
      "inputs": [
        {
          "indexed": false,
          "name": "amount",
          "type": "uint256"
        }
      ],
      "name": "LogPropertyValueChange",
      "type": "event"
    },
    {
      "constant": false,
      "inputs": [
        {
          "name": "_manager",
          "type": "address"
        }
      ],
      "name": "setManager",
      "outputs": [
        {
          "name": "success",
          "type": "bool"
        }
      ],
      "payable": false,
      "stateMutability": "nonpayable",
      "type": "function"
    },
    {
      "constant": false,
      "inputs": [
        {
          "name": "_broker",
          "type": "address"
        }
      ],
      "name": "setBroker",
      "outputs": [
        {
          "name": "success",
          "type": "bool"
        }
      ],
      "payable": false,
      "stateMutability": "nonpayable",
      "type": "function"
    },
    {
      "constant": false,
      "inputs": [
        {
          "name": "_propertyValue",
          "type": "uint256"
        }
      ],
      "name": "setPropertyValue",
      "outputs": [
        {
          "name": "success",
          "type": "bool"
        }
      ],
      "payable": false,
      "stateMutability": "nonpayable",
      "type": "function"
    },
    {
      "constant": false,
      "inputs": [
        {
          "name": "_rentalIcome",
          "type": "uint256"
        },
        {
          "name": "_maintenanceCost",
          "type": "uint256"
        },
        {
          "name": "_bills",
          "type": "uint256"
        }
      ],
      "name": "setExpense",
      "outputs": [
        {
          "name": "success",
          "type": "bool"
        }
      ],
      "payable": false,
      "stateMutability": "nonpayable",
      "type": "function"
    }
  ],
  "bytecode": "0x608060405234801561001057600080fd5b5060405160a080610ad8833981018060405281019080805190602001909291908051906020019092919080519060200190929190805190602001909291908051906020019092919050505033600260006101000a81548173ffffffffffffffffffffffffffffffffffffffff021916908373ffffffffffffffffffffffffffffffffffffffff160217905550846007600001816000191690555083600760010181600019169055508260076002018190555081600081600019169055508060018190555050505050506109f0806100e86000396000f3006080604052600436106100c5576000357c0100000000000000000000000000000000000000000000000000000000900463ffffffff1680631015c682146100ca5780631a37b8f9146100f55780631ec7e3451461012857806323a8aa0914610153578063370158ea146101ac578063466663cb146101f5578063481c6a751461022e5780639f181b5e14610285578063abff0110146102b0578063ac17c71014610307578063bf0d02131461034c578063d0ebdbe7146103a7578063f851a44014610402575b600080fd5b3480156100d657600080fd5b506100df610459565b6040518082815260200191505060405180910390f35b34801561010157600080fd5b5061010a61045f565b60405180826000191660001916815260200191505060405180910390f35b34801561013457600080fd5b5061013d610465565b6040518082815260200191505060405180910390f35b34801561015f57600080fd5b5061019260048036038101908080359060200190929190803590602001909291908035906020019092919050505061046b565b604051808215151515815260200191505060405180910390f35b3480156101b857600080fd5b506101c161055b565b6040518084600019166000191681526020018360001916600019168152602001828152602001935050505060405180910390f35b34801561020157600080fd5b5061020a610573565b60405180848152602001838152602001828152602001935050505060405180910390f35b34801561023a57600080fd5b5061024361058b565b604051808273ffffffffffffffffffffffffffffffffffffffff1673ffffffffffffffffffffffffffffffffffffffff16815260200191505060405180910390f35b34801561029157600080fd5b5061029a6105b1565b6040518082815260200191505060405180910390f35b3480156102bc57600080fd5b506102c56105b7565b604051808273ffffffffffffffffffffffffffffffffffffffff1673ffffffffffffffffffffffffffffffffffffffff16815260200191505060405180910390f35b34801561031357600080fd5b50610332600480360381019080803590602001909291905050506105dd565b604051808215151515815260200191505060405180910390f35b34801561035857600080fd5b5061038d600480360381019080803573ffffffffffffffffffffffffffffffffffffffff16906020019092919050505061077c565b604051808215151515815260200191505060405180910390f35b3480156103b357600080fd5b506103e8600480360381019080803573ffffffffffffffffffffffffffffffffffffffff16906020019092919050505061088d565b604051808215151515815260200191505060405180910390f35b34801561040e57600080fd5b5061041761099e565b604051808273ffffffffffffffffffffffffffffffffffffffff1673ffffffffffffffffffffffffffffffffffffffff16815260200191505060405180910390f35b60055481565b60005481565b60065481565b6000600260009054906101000a900473ffffffffffffffffffffffffffffffffffffffff1673ffffffffffffffffffffffffffffffffffffffff163373ffffffffffffffffffffffffffffffffffffffff16141515610532576040517f08c379a000000000000000000000000000000000000000000000000000000000815260040180806020018281038252601c8152602001807f4f6e6c792041646d696e2063616e2061737369676e2062726f6b65720000000081525060200191505060405180910390fd5b83600a6000018190555082600a6001018190555081600a60020181905550600190509392505050565b60078060000154908060010154908060020154905083565b600a8060000154908060010154908060020154905083565b600360009054906101000a900473ffffffffffffffffffffffffffffffffffffffff1681565b60015481565b600460009054906101000a900473ffffffffffffffffffffffffffffffffffffffff1681565b6000600260009054906101000a900473ffffffffffffffffffffffffffffffffffffffff1673ffffffffffffffffffffffffffffffffffffffff163373ffffffffffffffffffffffffffffffffffffffff161415156106a4576040517f08c379a00000000000000000000000000000000000000000000000000000000081526004018080602001828103825260188152602001807f4f6e6c792041646d696e2063616e207365742076616c7565000000000000000081525060200191505060405180910390fd5b816005819055507f1cd1c48e442e5ad7eff7d6fff6122631aa8dfa7c0404e4bfe3c7373eb19a8288826040518082815260200191505060405180910390a160006001541415151561075d576040517f08c379a000000000000000000000000000000000000000000000000000000000815260040180806020018281038252600e8152602001807f4e6f74207a65726f20636865636b00000000000000000000000000000000000081525060200191505060405180910390fd5b60015460055481151561076c57fe5b0460068190555060019050919050565b6000600260009054906101000a900473ffffffffffffffffffffffffffffffffffffffff1673ffffffffffffffffffffffffffffffffffffffff163373ffffffffffffffffffffffffffffffffffffffff16141515610843576040517f08c379a000000000000000000000000000000000000000000000000000000000815260040180806020018281038252601c8152602001807f4f6e6c792041646d696e2063616e2061737369676e2062726f6b65720000000081525060200191505060405180910390fd5b81600460006101000a81548173ffffffffffffffffffffffffffffffffffffffff021916908373ffffffffffffffffffffffffffffffffffffffff16021790555060019050919050565b6000600260009054906101000a900473ffffffffffffffffffffffffffffffffffffffff1673ffffffffffffffffffffffffffffffffffffffff163373ffffffffffffffffffffffffffffffffffffffff16141515610954576040517f08c379a000000000000000000000000000000000000000000000000000000000815260040180806020018281038252601d8152602001807f4f6e6c792041646d696e2063616e2061737369676e206d616e6167657200000081525060200191505060405180910390fd5b81600360006101000a81548173ffffffffffffffffffffffffffffffffffffffff021916908373ffffffffffffffffffffffffffffffffffffffff16021790555060019050919050565b600260009054906101000a900473ffffffffffffffffffffffffffffffffffffffff16815600a165627a7a72305820f41f0409b9d0da21cc4293d6de5ff06ef5d02d1040351cef619d84b81d1dade30029",
  "source": "pragma solidity ^0.4.8;\n\ncontract Title {\n    \n    // This declares a new complex type which will\n    // be used for variables later.\n    // It will represent a property on SmartCrowd.\n    \n    //Property specific attributes that will never change\n     struct Property {\n        bytes32 name;  //Property Name\n        bytes32 loaction;  //Location Name\n        uint registrationNo;   // reg no\n    }\n    bytes32 public smartCrowdPropertyId;\n    uint public tokenCount;\n    \n    //address to determine priviledge\n    address public admin;\n    address public manager;\n    address public broker;\n    \n    uint public propertyValue;\n    \n    //Follwing attributes will change\n    uint public tokenValue;\n    \n    //priviledged to be changed by only manager\n     struct Expense {\n         uint rentalIcome;\n         uint maintenanceCost; \n         uint bills;\n    }\n    \n    Property public info;\n    Expense public expense;\n    \n    event LogPropertyValueChange(uint amount);\n    \n    function () public payable {\n        revert () ;\n    }\n    constructor(bytes32 _name,bytes32 _loaction,uint _registrationNo,bytes32 _id,uint _tokenCount) public{\n        admin=msg.sender;\n        info.name=_name;\n        info.loaction=_loaction;\n        info.registrationNo=_registrationNo;\n        smartCrowdPropertyId=_id;\n        tokenCount=_tokenCount;\n    }\n    function setManager(address _manager) public returns(bool success){\n          require(\n            msg.sender == admin,\n            \"Only Admin can assign manager\"\n        );\n        manager=_manager;\n        return true;\n    }\n    function setBroker(address _broker) public returns(bool success){\n             require(\n            msg.sender == admin,\n            \"Only Admin can assign broker\"\n        );\n        broker=_broker;\n        return true;\n    }\n    function setPropertyValue(uint _propertyValue) public returns(bool success){\n             require(\n            msg.sender == admin,\n            \"Only Admin can set value\"\n        );\n        propertyValue=_propertyValue;\n        emit LogPropertyValueChange(_propertyValue);\n        require(tokenCount!=0, \"Not zero check\");\n        tokenValue=propertyValue/tokenCount;\n        return true;\n    }\n    function setExpense(uint _rentalIcome,uint _maintenanceCost,uint _bills) public returns(bool success){\n             require(\n            msg.sender == admin,\n            \"Only Admin can assign broker\"\n        );\n        expense.rentalIcome=_rentalIcome;\n        expense.maintenanceCost=_maintenanceCost;\n        expense.bills=_bills;\n        return true;\n    }\n}\n\n\n\n",
  "sourcePath": "/home/t/project/SmartCrowd-ethereum/contracts/SmartCrowd.sol",
  "compiler": {
    "name": "solc",
    "version": "0.4.24+commit.e67f0147.Emscripten.clang"
  },
  "schemaVersion": "2.0.1",
  "updatedAt": "2018-10-22T20:17:05.653Z"
}